:100000008000C291C2927E3811B57E0611B57E0C79
:1000100011B57E0111B511A5C2927E8011B5D292A3
:100020007E5711B580FE75F0007905E9232323245E
:1000300040F9C2922257535449204B61746F77693B
:1000400063652461616161616161616161616161D7
:100050006161616262626262626262626262626283
:100060006262626363636363636363636363636363
:1000700063636324D2927B00EB93FEBE2402801F55
:1000800011AE11B50BBB200AC2927E8011B5D2927F
:1000900080E6BB10E3C2927EC011B5D29280D92215
:1000A0007F05DFFE227CFF7DFFDDFEDCFA227A0287
:1000B00011A5DAFC228E80D29011A0C29011A0224C
:0800C00000001F151F151F00B1
:00000001FF
