:02000000800B73
:10000B00803BC291C2927E3811EA7E0611EA7E0FC6
:10001B0011EA7E0111EA11D8758901758CD5758AA3
:10002B009CD28CD2A9D2AF7570007571007572001D
:10003B0075600175610275620311B580FE20B525EF
:10004B00D2D5E570B5601CE571B56117E572B56287
:10005B00127580FFC28011E17570007571007572A9
:10006B0000D280800020B4112093100570D293AB86
:10007B0070BB0A077570008002C29320B3112094E5
:10008B00100571D294AB71BB0A077571008002C267
:10009B009420B2112095100572D295AB72BB0A0752
:1000AB007572008002C29511B532C2927E8011EA40
:1000BB00D292E5702430FE11EAE5712430FE11EA8C
:1000CB00E5722430FE11EA227F05DFFE227CFF7DE4
:1000DB00FFDDFEDCFA2275640E11D8D564FB228E8F
:0A00EB0080D29011D3C29011D322ED
:00000001FF
